{
    "_format": "hh-sol-artifact-1",
    "contractName": "BuyMeACoffee",
    "sourceName": "contracts/BuyMeACoffee.sol",
    "abi": [
        {
            "inputs": [],
            "stateMutability": "nonpayable",
            "type": "constructor"
        },
        {
            "anonymous": false,
            "inputs": [
                {
                    "indexed": true,
                    "internalType": "address",
                    "name": "from",
                    "type": "address"
                },
                {
                    "indexed": false,
                    "internalType": "uint256",
                    "name": "timestamp",
                    "type": "uint256"
                },
                {
                    "indexed": false,
                    "internalType": "string",
                    "name": "coffeeSize",
                    "type": "string"
                },
                {
                    "indexed": false,
                    "internalType": "string",
                    "name": "name",
                    "type": "string"
                },
                {
                    "indexed": false,
                    "internalType": "string",
                    "name": "message",
                    "type": "string"
                }
            ],
            "name": "NewMemo",
            "type": "event"
        },
        {
            "inputs": [
                {
                    "internalType": "string",
                    "name": "_name",
                    "type": "string"
                },
                {
                    "internalType": "string",
                    "name": "_message",
                    "type": "string"
                }
            ],
            "name": "buyCoffee",
            "outputs": [],
            "stateMutability": "payable",
            "type": "function"
        },
        {
            "inputs": [
                {
                    "internalType": "string",
                    "name": "_name",
                    "type": "string"
                },
                {
                    "internalType": "string",
                    "name": "_message",
                    "type": "string"
                }
            ],
            "name": "buyLargeCoffee",
            "outputs": [],
            "stateMutability": "payable",
            "type": "function"
        },
        {
            "inputs": [],
            "name": "getMemos",
            "outputs": [
                {
                    "components": [
                        {
                            "internalType": "address",
                            "name": "from",
                            "type": "address"
                        },
                        {
                            "internalType": "uint256",
                            "name": "timestamp",
                            "type": "uint256"
                        },
                        {
                            "internalType": "string",
                            "name": "coffeeSize",
                            "type": "string"
                        },
                        {
                            "internalType": "string",
                            "name": "name",
                            "type": "string"
                        },
                        {
                            "internalType": "string",
                            "name": "message",
                            "type": "string"
                        }
                    ],
                    "internalType": "struct BuyMeACoffee.Memo[]",
                    "name": "",
                    "type": "tuple[]"
                }
            ],
            "stateMutability": "view",
            "type": "function"
        },
        {
            "inputs": [],
            "name": "getOwner",
            "outputs": [
                {
                    "internalType": "address",
                    "name": "",
                    "type": "address"
                }
            ],
            "stateMutability": "view",
            "type": "function"
        },
        {
            "inputs": [],
            "name": "getTipsBalance",
            "outputs": [
                {
                    "internalType": "uint256",
                    "name": "",
                    "type": "uint256"
                }
            ],
            "stateMutability": "view",
            "type": "function"
        },
        {
            "inputs": [],
            "name": "getWithdrawalAddress",
            "outputs": [
                {
                    "internalType": "address",
                    "name": "",
                    "type": "address"
                }
            ],
            "stateMutability": "view",
            "type": "function"
        },
        {
            "inputs": [
                {
                    "internalType": "address",
                    "name": "_newWithdrawalAddress",
                    "type": "address"
                }
            ],
            "name": "updateWithdrawalAddress",
            "outputs": [],
            "stateMutability": "nonpayable",
            "type": "function"
        },
        {
            "inputs": [],
            "name": "withdrawTips",
            "outputs": [],
            "stateMutability": "nonpayable",
            "type": "function"
        }
    ],
    "bytecode": "0x608060405234801561001057600080fd5b50336000806101000a81548173ffffffffffffffffffffffffffffffffffffffff021916908373ffffffffffffffffffffffffffffffffffffffff16021790555033600160006101000a81548173ffffffffffffffffffffffffffffffffffffffff021916908373ffffffffffffffffffffffffffffffffffffffff160217905550611250806100a16000396000f3fe60806040526004361061007b5760003560e01c8063865c51721161004e578063865c5172146100f8578063893d20e814610123578063e1e42fa01461014e578063ec8f3fa5146101795761007b565b8063204206e1146100805780633aaa74b21461009c578063417f9ea9146100b35780635e72fc5d146100cf575b600080fd5b61009a60048036038101906100959190610b32565b6101a4565b005b3480156100a857600080fd5b506100b1610384565b005b6100cd60048036038101906100c89190610b32565b61043e565b005b3480156100db57600080fd5b506100f660048036038101906100f19190610b09565b610624565b005b34801561010457600080fd5b5061010d6106c0565b60405161011a9190610e00565b60405180910390f35b34801561012f57600080fd5b50610138610935565b6040516101459190610de5565b60405180910390f35b34801561015a57600080fd5b5061016361095e565b6040516101709190610e62565b60405180910390f35b34801561018557600080fd5b5061018e6109bf565b60405161019b9190610de5565b60405180910390f35b600034116101e7576040517f08c379a00000000000000000000000000000000000000000000000000000000081526004016101de90610e22565b60405180910390fd5b60026040518060a001604052803373ffffffffffffffffffffffffffffffffffffffff1681526020014281526020016040518060400160405280600781526020017f726567756c617200000000000000000000000000000000000000000000000000815250815260200184815260200183815250908060018154018082558091505060019003906000526020600020906005020160009091909190915060008201518160000160006101000a81548173ffffffffffffffffffffffffffffffffffffffff021916908373ffffffffffffffffffffffffffffffffffffffff1602179055506020820151816001015560408201518160020190805190602001906102f19291906109e9565b50606082015181600301908051906020019061030e9291906109e9565b50608082015181600401908051906020019061032b9291906109e9565b5050503373ffffffffffffffffffffffffffffffffffffffff167f278e362bfd6af0951b595e6b22ce136796546ae06428ae7bd4eb4921eb991c6242848460405161037893929190610ed5565b60405180910390a25050565b60008054906101000a900473ffffffffffffffffffffffffffffffffffffffff1673ffffffffffffffffffffffffffffffffffffffff163373ffffffffffffffffffffffffffffffffffffffff16146103dc57600080fd5b600160009054906101000a900473ffffffffffffffffffffffffffffffffffffffff1673ffffffffffffffffffffffffffffffffffffffff166108fc479081150290604051600060405180830381858888f1935050505061043c57600080fd5b565b660aa87bee5380003414610487576040517f08c379a000000000000000000000000000000000000000000000000000000000815260040161047e90610e42565b60405180910390fd5b60026040518060a001604052803373ffffffffffffffffffffffffffffffffffffffff1681526020014281526020016040518060400160405280600581526020017f6c61726765000000000000000000000000000000000000000000000000000000815250815260200184815260200183815250908060018154018082558091505060019003906000526020600020906005020160009091909190915060008201518160000160006101000a81548173ffffffffffffffffffffffffffffffffffffffff021916908373ffffffffffffffffffffffffffffffffffffffff1602179055506020820151816001015560408201518160020190805190602001906105919291906109e9565b5060608201518160030190805190602001906105ae9291906109e9565b5060808201518160040190805190602001906105cb9291906109e9565b5050503373ffffffffffffffffffffffffffffffffffffffff167f278e362bfd6af0951b595e6b22ce136796546ae06428ae7bd4eb4921eb991c6242848460405161061893929190610e7d565b60405180910390a25050565b60008054906101000a900473ffffffffffffffffffffffffffffffffffffffff1673ffffffffffffffffffffffffffffffffffffffff163373ffffffffffffffffffffffffffffffffffffffff161461067c57600080fd5b80600160006101000a81548173ffffffffffffffffffffffffffffffffffffffff021916908373ffffffffffffffffffffffffffffffffffffffff16021790555050565b60606002805480602002602001604051908101604052809291908181526020016000905b8282101561092c57838290600052602060002090600502016040518060a00160405290816000820160009054906101000a900473ffffffffffffffffffffffffffffffffffffffff1673ffffffffffffffffffffffffffffffffffffffff1673ffffffffffffffffffffffffffffffffffffffff1681526020016001820154815260200160028201805461077790611067565b80601f01602080910402602001604051908101604052809291908181526020018280546107a390611067565b80156107f05780601f106107c5576101008083540402835291602001916107f0565b820191906000526020600020905b8154815290600101906020018083116107d357829003601f168201915b5050505050815260200160038201805461080990611067565b80601f016020809104026020016040519081016040528092919081815260200182805461083590611067565b80156108825780601f1061085757610100808354040283529160200191610882565b820191906000526020600020905b81548152906001019060200180831161086557829003601f168201915b5050505050815260200160048201805461089b90611067565b80601f01602080910402602001604051908101604052809291908181526020018280546108c790611067565b80156109145780601f106108e957610100808354040283529160200191610914565b820191906000526020600020905b8154815290600101906020018083116108f757829003601f168201915b505050505081525050815260200190600101906106e4565b50505050905090565b60008060009054906101000a900473ffffffffffffffffffffffffffffffffffffffff16905090565b60008060009054906101000a900473ffffffffffffffffffffffffffffffffffffffff1673ffffffffffffffffffffffffffffffffffffffff163373ffffffffffffffffffffffffffffffffffffffff16146109b957600080fd5b47905090565b6000600160009054906101000a900473ffffffffffffffffffffffffffffffffffffffff16905090565b8280546109f590611067565b90600052602060002090601f016020900481019282610a175760008555610a5e565b82601f10610a3057805160ff1916838001178555610a5e565b82800160010185558215610a5e579182015b82811115610a5d578251825591602001919060010190610a42565b5b509050610a6b9190610a6f565b5090565b5b80821115610a88576000816000905550600101610a70565b5090565b6000610a9f610a9a84610f52565b610f2d565b905082815260208101848484011115610ab757600080fd5b610ac2848285611025565b509392505050565b600081359050610ad981611203565b92915050565b600082601f830112610af057600080fd5b8135610b00848260208601610a8c565b91505092915050565b600060208284031215610b1b57600080fd5b6000610b2984828501610aca565b91505092915050565b60008060408385031215610b4557600080fd5b600083013567ffffffffffffffff811115610b5f57600080fd5b610b6b85828601610adf565b925050602083013567ffffffffffffffff811115610b8857600080fd5b610b9485828601610adf565b9150509250929050565b6000610baa8383610d43565b905092915050565b610bbb81610fe9565b82525050565b610bca81610fe9565b82525050565b6000610bdb82610f93565b610be58185610fb6565b935083602082028501610bf785610f83565b8060005b85811015610c335784840389528151610c148582610b9e565b9450610c1f83610fa9565b925060208a01995050600181019050610bfb565b50829750879550505050505092915050565b6000610c5082610f9e565b610c5a8185610fc7565b9350610c6a818560208601611034565b610c7381611128565b840191505092915050565b6000610c8982610f9e565b610c938185610fd8565b9350610ca3818560208601611034565b610cac81611128565b840191505092915050565b6000610cc4600583610fd8565b9150610ccf82611139565b602082019050919050565b6000610ce7600783610fd8565b9150610cf282611162565b602082019050919050565b6000610d0a601a83610fd8565b9150610d158261118b565b602082019050919050565b6000610d2d602583610fd8565b9150610d38826111b4565b604082019050919050565b600060a083016000830151610d5b6000860182610bb2565b506020830151610d6e6020860182610dc7565b5060408301518482036040860152610d868282610c45565b91505060608301518482036060860152610da08282610c45565b91505060808301518482036080860152610dba8282610c45565b9150508091505092915050565b610dd08161101b565b82525050565b610ddf8161101b565b82525050565b6000602082019050610dfa6000830184610bc1565b92915050565b60006020820190508181036000830152610e1a8184610bd0565b905092915050565b60006020820190508181036000830152610e3b81610cfd565b9050919050565b60006020820190508181036000830152610e5b81610d20565b9050919050565b6000602082019050610e776000830184610dd6565b92915050565b6000608082019050610e926000830186610dd6565b8181036020830152610ea381610cb7565b90508181036040830152610eb78185610c7e565b90508181036060830152610ecb8184610c7e565b9050949350505050565b6000608082019050610eea6000830186610dd6565b8181036020830152610efb81610cda565b90508181036040830152610f0f8185610c7e565b90508181036060830152610f238184610c7e565b9050949350505050565b6000610f37610f48565b9050610f438282611099565b919050565b6000604051905090565b600067ffffffffffffffff821115610f6d57610f6c6110f9565b5b610f7682611128565b9050602081019050919050565b6000819050602082019050919050565b600081519050919050565b600081519050919050565b6000602082019050919050565b600082825260208201905092915050565b600082825260208201905092915050565b600082825260208201905092915050565b6000610ff482610ffb565b9050919050565b600073ffffffffffffffffffffffffffffffffffffffff82169050919050565b6000819050919050565b82818337600083830152505050565b60005b83811015611052578082015181840152602081019050611037565b83811115611061576000848401525b50505050565b6000600282049050600182168061107f57607f821691505b60208210811415611093576110926110ca565b5b50919050565b6110a282611128565b810181811067ffffffffffffffff821117156110c1576110c06110f9565b5b80604052505050565b7f4e487b7100000000000000000000000000000000000000000000000000000000600052602260045260246000fd5b7f4e487b7100000000000000000000000000000000000000000000000000000000600052604160045260246000fd5b6000601f19601f8301169050919050565b7f6c61726765000000000000000000000000000000000000000000000000000000600082015250565b7f726567756c617200000000000000000000000000000000000000000000000000600082015250565b7f63616e27742062757920636f6666656520666f72206672656521000000000000600082015250565b7f6c6172676520636f6666656520636f7374732065786163746c7920302e30303360008201527f2065746821000000000000000000000000000000000000000000000000000000602082015250565b61120c81610fe9565b811461121757600080fd5b5056fea2646970667358221220c60f82c1bd73f78050d9e273564558ddc75ada154618a29a685cdecfe6dbbe5864736f6c63430008040033",
    "linkReferences": {},
    "deployedLinkReferences": {}
}